{
  "_format": "hh-sol-artifact-1",
  "contractName": "Auth",
  "sourceName": "contracts/access-control/Auth.sol",
  "abi": [
    {
      "inputs": [
        {
          "internalType": "address",
          "name": "deployer",
          "type": "address"
        }
      ],
      "stateMutability": "nonpayable",
      "type": "constructor"
    },
    {
      "inputs": [
        {
          "internalType": "address",
          "name": "user",
          "type": "address"
        }
      ],
      "name": "isAdministrator",
      "outputs": [
        {
          "internalType": "bool",
          "name": "",
          "type": "bool"
        }
      ],
      "stateMutability": "view",
      "type": "function"
    }
  ],
  "bytecode": "0x608060405234801561001057600080fd5b506040516102ba3803806102ba8339818101604052810190610032919061008d565b806000806101000a81548173ffffffffffffffffffffffffffffffffffffffff021916908373ffffffffffffffffffffffffffffffffffffffff160217905550506100ff565b600081519050610087816100e8565b92915050565b60006020828403121561009f57600080fd5b60006100ad84828501610078565b91505092915050565b60006100c1826100c8565b9050919050565b600073ffffffffffffffffffffffffffffffffffffffff82169050919050565b6100f1816100b6565b81146100fc57600080fd5b50565b6101ac8061010e6000396000f3fe608060405234801561001057600080fd5b506004361061002b5760003560e01c80630a2eb30114610030575b600080fd5b61004a600480360381019061004591906100ce565b610060565b6040516100579190610106565b60405180910390f35b60008060009054906101000a900473ffffffffffffffffffffffffffffffffffffffff1673ffffffffffffffffffffffffffffffffffffffff168273ffffffffffffffffffffffffffffffffffffffff16149050919050565b6000813590506100c88161015f565b92915050565b6000602082840312156100e057600080fd5b60006100ee848285016100b9565b91505092915050565b61010081610133565b82525050565b600060208201905061011b60008301846100f7565b92915050565b600061012c8261013f565b9050919050565b60008115159050919050565b600073ffffffffffffffffffffffffffffffffffffffff82169050919050565b61016881610121565b811461017357600080fd5b5056fea26469706673582212207f0fb6caa09bdf61362800dd74c53e84ace6912df1f0ed312e64d47d91ee794964736f6c63430008040033",
  "linkReferences": {},
  "deployedLinkReferences": {}
}